{
  "_format": "hh-sol-artifact-1",
  "contractName": "Healthcare",
  "sourceName": "contracts/Healtchcare.sol",
  "abi": [
    {
      "inputs": [],
      "stateMutability": "nonpayable",
      "type": "constructor"
    },
    {
      "anonymous": false,
      "inputs": [
        {
          "indexed": false,
          "internalType": "address",
          "name": "id",
          "type": "address"
        },
        {
          "indexed": false,
          "internalType": "string",
          "name": "name",
          "type": "string"
        },
        {
          "indexed": false,
          "internalType": "string",
          "name": "specialization",
          "type": "string"
        }
      ],
      "name": "DoctorAuthorized",
      "type": "event"
    },
    {
      "anonymous": false,
      "inputs": [
        {
          "indexed": false,
          "internalType": "address",
          "name": "id",
          "type": "address"
        },
        {
          "indexed": false,
          "internalType": "string",
          "name": "name",
          "type": "string"
        }
      ],
      "name": "PatientRecordAdded",
      "type": "event"
    },
    {
      "anonymous": false,
      "inputs": [
        {
          "indexed": false,
          "internalType": "address",
          "name": "id",
          "type": "address"
        },
        {
          "indexed": false,
          "internalType": "string",
          "name": "name",
          "type": "string"
        }
      ],
      "name": "PatientRecordUpdated",
      "type": "event"
    },
    {
      "inputs": [
        {
          "internalType": "address",
          "name": "_id",
          "type": "address"
        },
        {
          "internalType": "string",
          "name": "_name",
          "type": "string"
        },
        {
          "internalType": "uint256",
          "name": "_age",
          "type": "uint256"
        },
        {
          "internalType": "string",
          "name": "_medicalHistory",
          "type": "string"
        }
      ],
      "name": "addPatientRecord",
      "outputs": [],
      "stateMutability": "nonpayable",
      "type": "function"
    },
    {
      "inputs": [],
      "name": "admin",
      "outputs": [
        {
          "internalType": "address",
          "name": "",
          "type": "address"
        }
      ],
      "stateMutability": "view",
      "type": "function"
    },
    {
      "inputs": [
        {
          "internalType": "address",
          "name": "_doctor",
          "type": "address"
        },
        {
          "internalType": "string",
          "name": "_name",
          "type": "string"
        },
        {
          "internalType": "string",
          "name": "_specialization",
          "type": "string"
        }
      ],
      "name": "authorizeDoctor",
      "outputs": [],
      "stateMutability": "nonpayable",
      "type": "function"
    },
    {
      "inputs": [
        {
          "internalType": "address",
          "name": "",
          "type": "address"
        }
      ],
      "name": "authorizedDoctor",
      "outputs": [
        {
          "internalType": "bool",
          "name": "",
          "type": "bool"
        }
      ],
      "stateMutability": "view",
      "type": "function"
    },
    {
      "inputs": [],
      "name": "doctorCount",
      "outputs": [
        {
          "internalType": "uint256",
          "name": "",
          "type": "uint256"
        }
      ],
      "stateMutability": "view",
      "type": "function"
    },
    {
      "inputs": [
        {
          "internalType": "address",
          "name": "",
          "type": "address"
        }
      ],
      "name": "doctors",
      "outputs": [
        {
          "internalType": "address",
          "name": "id",
          "type": "address"
        },
        {
          "internalType": "string",
          "name": "name",
          "type": "string"
        },
        {
          "internalType": "string",
          "name": "specialization",
          "type": "string"
        }
      ],
      "stateMutability": "view",
      "type": "function"
    },
    {
      "inputs": [
        {
          "internalType": "string",
          "name": "",
          "type": "string"
        },
        {
          "internalType": "uint256",
          "name": "",
          "type": "uint256"
        }
      ],
      "name": "doctorsBySpecialization",
      "outputs": [
        {
          "internalType": "address",
          "name": "",
          "type": "address"
        }
      ],
      "stateMutability": "view",
      "type": "function"
    },
    {
      "inputs": [
        {
          "internalType": "string",
          "name": "_specialization",
          "type": "string"
        }
      ],
      "name": "getDoctorsBySpecialization",
      "outputs": [
        {
          "internalType": "address[]",
          "name": "",
          "type": "address[]"
        }
      ],
      "stateMutability": "view",
      "type": "function"
    },
    {
      "inputs": [
        {
          "internalType": "address",
          "name": "_id",
          "type": "address"
        }
      ],
      "name": "getPatientRecord",
      "outputs": [
        {
          "components": [
            {
              "internalType": "address",
              "name": "id",
              "type": "address"
            },
            {
              "internalType": "string",
              "name": "name",
              "type": "string"
            },
            {
              "internalType": "uint256",
              "name": "age",
              "type": "uint256"
            },
            {
              "internalType": "string",
              "name": "medicalHistory",
              "type": "string"
            }
          ],
          "internalType": "struct Healthcare.Patient",
          "name": "",
          "type": "tuple"
        }
      ],
      "stateMutability": "view",
      "type": "function"
    },
    {
      "inputs": [
        {
          "internalType": "address",
          "name": "",
          "type": "address"
        }
      ],
      "name": "patientRecords",
      "outputs": [
        {
          "internalType": "address",
          "name": "id",
          "type": "address"
        },
        {
          "internalType": "string",
          "name": "name",
          "type": "string"
        },
        {
          "internalType": "uint256",
          "name": "age",
          "type": "uint256"
        },
        {
          "internalType": "string",
          "name": "medicalHistory",
          "type": "string"
        }
      ],
      "stateMutability": "view",
      "type": "function"
    },
    {
      "inputs": [
        {
          "internalType": "address",
          "name": "_id",
          "type": "address"
        },
        {
          "internalType": "string",
          "name": "_name",
          "type": "string"
        },
        {
          "internalType": "uint256",
          "name": "_age",
          "type": "uint256"
        },
        {
          "internalType": "string",
          "name": "_medicalHistory",
          "type": "string"
        }
      ],
      "name": "updatePatientRecord",
      "outputs": [],
      "stateMutability": "nonpayable",
      "type": "function"
    }
  ],
  "bytecode": "0x608060405234801561001057600080fd5b50336000806101000a81548173ffffffffffffffffffffffffffffffffffffffff021916908373ffffffffffffffffffffffffffffffffffffffff160217905550611ce6806100606000396000f3fe608060405234801561001057600080fd5b50600436106100a95760003560e01c8063692e019311610071578063692e01931461017957806378522bc4146101a9578063a9583c22146101c7578063c12f7455146101f9578063c241cdd714610215578063f851a44014610245576100a9565b806308d31e58146100ae57806318607174146100ca578063200a1b91146100fa578063209ca6ec1461012d5780634462417514610149575b600080fd5b6100c860048036038101906100c3919061133b565b610263565b005b6100e460048036038101906100df9190611293565b61047f565b6040516100f191906118b7565b60405180910390f35b610114600480360381019061010f9190611293565b61072e565b6040516101249493929190611787565b60405180910390f35b610147600480360381019061014291906112bc565b61088e565b005b610163600480360381019061015e9190611293565b610bcc565b60405161017091906117fc565b60405180910390f35b610193600480360381019061018e919061140f565b610bec565b6040516101a091906116f7565b60405180910390f35b6101b1610c50565b6040516101be91906118d9565b60405180910390f35b6101e160048036038101906101dc9190611293565b610c56565b6040516101f093929190611742565b60405180910390f35b610213600480360381019061020e919061133b565b610db0565b005b61022f600480360381019061022a91906113ce565b611050565b60405161023c91906117da565b60405180910390f35b61024d6110fc565b60405161025a91906116f7565b60405180910390f35b600360003373ffffffffffffffffffffffffffffffffffffffff1673ffffffffffffffffffffffffffffffffffffffff16815260200190815260200160002060009054906101000a900460ff166102ef576040517f08c379a00000000000000000000000000000000000000000000000000000000081526004016102e690611897565b60405180910390fd5b600073ffffffffffffffffffffffffffffffffffffffff16600160008673ffffffffffffffffffffffffffffffffffffffff1673ffffffffffffffffffffffffffffffffffffffff16815260200190815260200160002060000160009054906101000a900473ffffffffffffffffffffffffffffffffffffffff1673ffffffffffffffffffffffffffffffffffffffff1614156103c1576040517f08c379a00000000000000000000000000000000000000000000000000000000081526004016103b890611877565b60405180910390fd5b6000600160008673ffffffffffffffffffffffffffffffffffffffff1673ffffffffffffffffffffffffffffffffffffffff16815260200190815260200160002090508381600101908051906020019061041c929190611120565b508281600201819055508181600301908051906020019061043e929190611120565b507f39670a98fa0d3298968910c2495fe9c535a25a73a63e02229479fd1318535dfc8585604051610470929190611712565b60405180910390a15050505050565b6104876111a6565b600073ffffffffffffffffffffffffffffffffffffffff16600160008473ffffffffffffffffffffffffffffffffffffffff1673ffffffffffffffffffffffffffffffffffffffff16815260200190815260200160002060000160009054906101000a900473ffffffffffffffffffffffffffffffffffffffff1673ffffffffffffffffffffffffffffffffffffffff161415610559576040517f08c379a000000000000000000000000000000000000000000000000000000000815260040161055090611877565b60405180910390fd5b600160008373ffffffffffffffffffffffffffffffffffffffff1673ffffffffffffffffffffffffffffffffffffffff1681526020019081526020016000206040518060800160405290816000820160009054906101000a900473ffffffffffffffffffffffffffffffffffffffff1673ffffffffffffffffffffffffffffffffffffffff1673ffffffffffffffffffffffffffffffffffffffff16815260200160018201805461060990611a45565b80601f016020809104026020016040519081016040528092919081815260200182805461063590611a45565b80156106825780601f1061065757610100808354040283529160200191610682565b820191906000526020600020905b81548152906001019060200180831161066557829003601f168201915b50505050508152602001600282015481526020016003820180546106a590611a45565b80601f01602080910402602001604051908101604052809291908181526020018280546106d190611a45565b801561071e5780601f106106f35761010080835404028352916020019161071e565b820191906000526020600020905b81548152906001019060200180831161070157829003601f168201915b5050505050815250509050919050565b60016020528060005260406000206000915090508060000160009054906101000a900473ffffffffffffffffffffffffffffffffffffffff169080600101805461077790611a45565b80601f01602080910402602001604051908101604052809291908181526020018280546107a390611a45565b80156107f05780601f106107c5576101008083540402835291602001916107f0565b820191906000526020600020905b8154815290600101906020018083116107d357829003601f168201915b50505050509080600201549080600301805461080b90611a45565b80601f016020809104026020016040519081016040528092919081815260200182805461083790611a45565b80156108845780601f1061085957610100808354040283529160200191610884565b820191906000526020600020905b81548152906001019060200180831161086757829003601f168201915b5050505050905084565b60008054906101000a900473ffffffffffffffffffffffffffffffffffffffff1673ffffffffffffffffffffffffffffffffffffffff163373ffffffffffffffffffffffffffffffffffffffff161461091c576040517f08c379a000000000000000000000000000000000000000000000000000000000815260040161091390611837565b60405180910390fd5b600360008473ffffffffffffffffffffffffffffffffffffffff1673ffffffffffffffffffffffffffffffffffffffff16815260200190815260200160002060009054906101000a900460ff16156109a9576040517f08c379a00000000000000000000000000000000000000000000000000000000081526004016109a090611817565b60405180910390fd5b60405180606001604052808473ffffffffffffffffffffffffffffffffffffffff16815260200183815260200182815250600260008573ffffffffffffffffffffffffffffffffffffffff1673ffffffffffffffffffffffffffffffffffffffff16815260200190815260200160002060008201518160000160006101000a81548173ffffffffffffffffffffffffffffffffffffffff021916908373ffffffffffffffffffffffffffffffffffffffff1602179055506020820151816001019080519060200190610a7c929190611120565b506040820151816002019080519060200190610a99929190611120565b509050506001600360008573ffffffffffffffffffffffffffffffffffffffff1673ffffffffffffffffffffffffffffffffffffffff16815260200190815260200160002060006101000a81548160ff021916908315150217905550600481604051610b0591906116e0565b9081526020016040518091039020839080600181540180825580915050600190039060005260206000200160009091909190916101000a81548173ffffffffffffffffffffffffffffffffffffffff021916908373ffffffffffffffffffffffffffffffffffffffff16021790555060056000815480929190610b8790611aa8565b91905055507f91c9b0638903073a8140d368a76d44a039d189441b24420fb9ffe61233af33c5838383604051610bbf93929190611742565b60405180910390a1505050565b60036020528060005260406000206000915054906101000a900460ff1681565b6004828051602081018201805184825260208301602085012081835280955050505050508181548110610c1e57600080fd5b906000526020600020016000915091509054906101000a900473ffffffffffffffffffffffffffffffffffffffff1681565b60055481565b60026020528060005260406000206000915090508060000160009054906101000a900473ffffffffffffffffffffffffffffffffffffffff1690806001018054610c9f90611a45565b80601f0160208091040260200160405190810160405280929190818152602001828054610ccb90611a45565b8015610d185780601f10610ced57610100808354040283529160200191610d18565b820191906000526020600020905b815481529060010190602001808311610cfb57829003601f168201915b505050505090806002018054610d2d90611a45565b80601f0160208091040260200160405190810160405280929190818152602001828054610d5990611a45565b8015610da65780601f10610d7b57610100808354040283529160200191610da6565b820191906000526020600020905b815481529060010190602001808311610d8957829003601f168201915b5050505050905083565b600360003373ffffffffffffffffffffffffffffffffffffffff1673ffffffffffffffffffffffffffffffffffffffff16815260200190815260200160002060009054906101000a900460ff16610e3c576040517f08c379a0000000000000000000000000000000000000000000000000000000008152600401610e3390611897565b60405180910390fd5b600073ffffffffffffffffffffffffffffffffffffffff16600160008673ffffffffffffffffffffffffffffffffffffffff1673ffffffffffffffffffffffffffffffffffffffff16815260200190815260200160002060000160009054906101000a900473ffffffffffffffffffffffffffffffffffffffff1673ffffffffffffffffffffffffffffffffffffffff1614610f0d576040517f08c379a0000000000000000000000000000000000000000000000000000000008152600401610f0490611857565b60405180910390fd5b60405180608001604052808573ffffffffffffffffffffffffffffffffffffffff16815260200184815260200183815260200182815250600160008673ffffffffffffffffffffffffffffffffffffffff1673ffffffffffffffffffffffffffffffffffffffff16815260200190815260200160002060008201518160000160006101000a81548173ffffffffffffffffffffffffffffffffffffffff021916908373ffffffffffffffffffffffffffffffffffffffff1602179055506020820151816001019080519060200190610fe6929190611120565b5060408201518160020155606082015181600301908051906020019061100d929190611120565b509050507f5bf4fbd0a415439cfc927a948a5366e59cfaf99989124634aac6a6712f7dbe2e8484604051611042929190611712565b60405180910390a150505050565b606060048260405161106291906116e0565b90815260200160405180910390208054806020026020016040519081016040528092919081815260200182805480156110f057602002820191906000526020600020905b8160009054906101000a900473ffffffffffffffffffffffffffffffffffffffff1673ffffffffffffffffffffffffffffffffffffffff16815260200190600101908083116110a6575b50505050509050919050565b60008054906101000a900473ffffffffffffffffffffffffffffffffffffffff1681565b82805461112c90611a45565b90600052602060002090601f01602090048101928261114e5760008555611195565b82601f1061116757805160ff1916838001178555611195565b82800160010185558215611195579182015b82811115611194578251825591602001919060010190611179565b5b5090506111a291906111e4565b5090565b6040518060800160405280600073ffffffffffffffffffffffffffffffffffffffff1681526020016060815260200160008152602001606081525090565b5b808211156111fd5760008160009055506001016111e5565b5090565b600061121461120f84611919565b6118f4565b90508281526020810184848401111561122c57600080fd5b611237848285611a03565b509392505050565b60008135905061124e81611c82565b92915050565b600082601f83011261126557600080fd5b8135611275848260208601611201565b91505092915050565b60008135905061128d81611c99565b92915050565b6000602082840312156112a557600080fd5b60006112b38482850161123f565b91505092915050565b6000806000606084860312156112d157600080fd5b60006112df8682870161123f565b935050602084013567ffffffffffffffff8111156112fc57600080fd5b61130886828701611254565b925050604084013567ffffffffffffffff81111561132557600080fd5b61133186828701611254565b9150509250925092565b6000806000806080858703121561135157600080fd5b600061135f8782880161123f565b945050602085013567ffffffffffffffff81111561137c57600080fd5b61138887828801611254565b93505060406113998782880161127e565b925050606085013567ffffffffffffffff8111156113b657600080fd5b6113c287828801611254565b91505092959194509250565b6000602082840312156113e057600080fd5b600082013567ffffffffffffffff8111156113fa57600080fd5b61140684828501611254565b91505092915050565b6000806040838503121561142257600080fd5b600083013567ffffffffffffffff81111561143c57600080fd5b61144885828601611254565b92505060206114598582860161127e565b9150509250929050565b600061146f838361147b565b60208301905092915050565b611484816119bb565b82525050565b611493816119bb565b82525050565b60006114a48261195a565b6114ae818561197d565b93506114b98361194a565b8060005b838110156114ea5781516114d18882611463565b97506114dc83611970565b9250506001810190506114bd565b5085935050505092915050565b611500816119cd565b82525050565b600061151182611965565b61151b818561198e565b935061152b818560208601611a12565b61153481611b7e565b840191505092915050565b600061154a82611965565b611554818561199f565b9350611564818560208601611a12565b61156d81611b7e565b840191505092915050565b600061158382611965565b61158d81856119b0565b935061159d818560208601611a12565b80840191505092915050565b60006115b6601c8361199f565b91506115c182611b8f565b602082019050919050565b60006115d960218361199f565b91506115e482611bb8565b604082019050919050565b60006115fc60168361199f565b915061160782611c07565b602082019050919050565b600061161f60168361199f565b915061162a82611c30565b602082019050919050565b6000611642600e8361199f565b915061164d82611c59565b602082019050919050565b6000608083016000830151611670600086018261147b565b50602083015184820360208601526116888282611506565b915050604083015161169d60408601826116c2565b50606083015184820360608601526116b58282611506565b9150508091505092915050565b6116cb816119f9565b82525050565b6116da816119f9565b82525050565b60006116ec8284611578565b915081905092915050565b600060208201905061170c600083018461148a565b92915050565b6000604082019050611727600083018561148a565b8181036020830152611739818461153f565b90509392505050565b6000606082019050611757600083018661148a565b8181036020830152611769818561153f565b9050818103604083015261177d818461153f565b9050949350505050565b600060808201905061179c600083018761148a565b81810360208301526117ae818661153f565b90506117bd60408301856116d1565b81810360608301526117cf818461153f565b905095945050505050565b600060208201905081810360008301526117f48184611499565b905092915050565b600060208201905061181160008301846114f7565b92915050565b60006020820190508181036000830152611830816115a9565b9050919050565b60006020820190508181036000830152611850816115cc565b9050919050565b60006020820190508181036000830152611870816115ef565b9050919050565b6000602082019050818103600083015261189081611612565b9050919050565b600060208201905081810360008301526118b081611635565b9050919050565b600060208201905081810360008301526118d18184611658565b905092915050565b60006020820190506118ee60008301846116d1565b92915050565b60006118fe61190f565b905061190a8282611a77565b919050565b6000604051905090565b600067ffffffffffffffff82111561193457611933611b4f565b5b61193d82611b7e565b9050602081019050919050565b6000819050602082019050919050565b600081519050919050565b600081519050919050565b6000602082019050919050565b600082825260208201905092915050565b600082825260208201905092915050565b600082825260208201905092915050565b600081905092915050565b60006119c6826119d9565b9050919050565b60008115159050919050565b600073ffffffffffffffffffffffffffffffffffffffff82169050919050565b6000819050919050565b82818337600083830152505050565b60005b83811015611a30578082015181840152602081019050611a15565b83811115611a3f576000848401525b50505050565b60006002820490506001821680611a5d57607f821691505b60208210811415611a7157611a70611b20565b5b50919050565b611a8082611b7e565b810181811067ffffffffffffffff82111715611a9f57611a9e611b4f565b5b80604052505050565b6000611ab3826119f9565b91507fffffffffffffffffffffffffffffffffffffffffffffffffffffffffffffffff821415611ae657611ae5611af1565b5b600182019050919050565b7f4e487b7100000000000000000000000000000000000000000000000000000000600052601160045260246000fd5b7f4e487b7100000000000000000000000000000000000000000000000000000000600052602260045260246000fd5b7f4e487b7100000000000000000000000000000000000000000000000000000000600052604160045260246000fd5b6000601f19601f8301169050919050565b7f446f63746f7220697320616c726561647920617574686f72697a656400000000600082015250565b7f4f6e6c792061646d696e2063616e2063616c6c20746869732066756e6374696f60008201527f6e00000000000000000000000000000000000000000000000000000000000000602082015250565b7f50617469656e7420616c72656164792065786973747300000000000000000000600082015250565b7f50617469656e7420646f6573206e6f7420657869737400000000000000000000600082015250565b7f4e6f7420617574686f72697a6564000000000000000000000000000000000000600082015250565b611c8b816119bb565b8114611c9657600080fd5b50565b611ca2816119f9565b8114611cad57600080fd5b5056fea2646970667358221220f3e0a1660d53da263da95ba80b19631c796ca9d4974d538cb7c09acc0d1008ee64736f6c63430008040033",
  "linkReferences": {},
  "deployedLinkReferences": {}
}