{
  "_format": "hh-sol-artifact-1",
  "contractName": "Healthcare",
  "sourceName": "contracts/Healtchcare.sol",
  "abi": [
    {
      "inputs": [],
      "stateMutability": "nonpayable",
      "type": "constructor"
    },
    {
      "anonymous": false,
      "inputs": [
        {
          "indexed": false,
          "internalType": "address",
          "name": "id",
          "type": "address"
        },
        {
          "indexed": false,
          "internalType": "string",
          "name": "name",
          "type": "string"
        },
        {
          "indexed": false,
          "internalType": "string",
          "name": "specialization",
          "type": "string"
        }
      ],
      "name": "DoctorAuthorized",
      "type": "event"
    },
    {
      "anonymous": false,
      "inputs": [
        {
          "indexed": false,
          "internalType": "address",
          "name": "id",
          "type": "address"
        },
        {
          "indexed": false,
          "internalType": "string",
          "name": "name",
          "type": "string"
        }
      ],
      "name": "PatientRecordAdded",
      "type": "event"
    },
    {
      "anonymous": false,
      "inputs": [
        {
          "indexed": false,
          "internalType": "address",
          "name": "id",
          "type": "address"
        },
        {
          "indexed": false,
          "internalType": "string",
          "name": "name",
          "type": "string"
        }
      ],
      "name": "PatientRecordUpdated",
      "type": "event"
    },
    {
      "inputs": [
        {
          "internalType": "address",
          "name": "_id",
          "type": "address"
        },
        {
          "internalType": "string",
          "name": "_name",
          "type": "string"
        },
        {
          "internalType": "uint256",
          "name": "_age",
          "type": "uint256"
        },
        {
          "internalType": "string",
          "name": "_medicalHistory",
          "type": "string"
        }
      ],
      "name": "addPatientRecord",
      "outputs": [],
      "stateMutability": "nonpayable",
      "type": "function"
    },
    {
      "inputs": [],
      "name": "admin",
      "outputs": [
        {
          "internalType": "address",
          "name": "",
          "type": "address"
        }
      ],
      "stateMutability": "view",
      "type": "function"
    },
    {
      "inputs": [
        {
          "internalType": "address",
          "name": "_doctor",
          "type": "address"
        },
        {
          "internalType": "string",
          "name": "_name",
          "type": "string"
        },
        {
          "internalType": "string",
          "name": "_specialization",
          "type": "string"
        }
      ],
      "name": "authorizeDoctor",
      "outputs": [],
      "stateMutability": "nonpayable",
      "type": "function"
    },
    {
      "inputs": [
        {
          "internalType": "address",
          "name": "",
          "type": "address"
        }
      ],
      "name": "authorizedDoctor",
      "outputs": [
        {
          "internalType": "bool",
          "name": "",
          "type": "bool"
        }
      ],
      "stateMutability": "view",
      "type": "function"
    },
    {
      "inputs": [],
      "name": "doctorCount",
      "outputs": [
        {
          "internalType": "uint256",
          "name": "",
          "type": "uint256"
        }
      ],
      "stateMutability": "view",
      "type": "function"
    },
    {
      "inputs": [
        {
          "internalType": "address",
          "name": "",
          "type": "address"
        }
      ],
      "name": "doctors",
      "outputs": [
        {
          "internalType": "address",
          "name": "id",
          "type": "address"
        },
        {
          "internalType": "string",
          "name": "name",
          "type": "string"
        },
        {
          "internalType": "string",
          "name": "specialization",
          "type": "string"
        }
      ],
      "stateMutability": "view",
      "type": "function"
    },
    {
      "inputs": [
        {
          "internalType": "string",
          "name": "",
          "type": "string"
        },
        {
          "internalType": "uint256",
          "name": "",
          "type": "uint256"
        }
      ],
      "name": "doctorsBySpecialization",
      "outputs": [
        {
          "internalType": "address",
          "name": "",
          "type": "address"
        }
      ],
      "stateMutability": "view",
      "type": "function"
    },
    {
      "inputs": [
        {
          "internalType": "string",
          "name": "_specialization",
          "type": "string"
        }
      ],
      "name": "getDoctorsBySpecialization",
      "outputs": [
        {
          "internalType": "address[]",
          "name": "",
          "type": "address[]"
        }
      ],
      "stateMutability": "view",
      "type": "function"
    },
    {
      "inputs": [
        {
          "internalType": "address",
          "name": "_id",
          "type": "address"
        }
      ],
      "name": "getPatientRecord",
      "outputs": [
        {
          "components": [
            {
              "internalType": "address",
              "name": "id",
              "type": "address"
            },
            {
              "internalType": "string",
              "name": "name",
              "type": "string"
            },
            {
              "internalType": "uint256",
              "name": "age",
              "type": "uint256"
            },
            {
              "internalType": "string",
              "name": "medicalHistory",
              "type": "string"
            }
          ],
          "internalType": "struct Healthcare.Patient",
          "name": "",
          "type": "tuple"
        }
      ],
      "stateMutability": "view",
      "type": "function"
    },
    {
      "inputs": [
        {
          "internalType": "address",
          "name": "",
          "type": "address"
        }
      ],
      "name": "patientRecords",
      "outputs": [
        {
          "internalType": "address",
          "name": "id",
          "type": "address"
        },
        {
          "internalType": "string",
          "name": "name",
          "type": "string"
        },
        {
          "internalType": "uint256",
          "name": "age",
          "type": "uint256"
        },
        {
          "internalType": "string",
          "name": "medicalHistory",
          "type": "string"
        }
      ],
      "stateMutability": "view",
      "type": "function"
    },
    {
      "inputs": [
        {
          "internalType": "address",
          "name": "_id",
          "type": "address"
        },
        {
          "internalType": "string",
          "name": "_name",
          "type": "string"
        },
        {
          "internalType": "uint256",
          "name": "_age",
          "type": "uint256"
        },
        {
          "internalType": "string",
          "name": "_medicalHistory",
          "type": "string"
        }
      ],
      "name": "updatePatientRecord",
      "outputs": [],
      "stateMutability": "nonpayable",
      "type": "function"
    }
  ],
  "bytecode": "0x608060405234801561001057600080fd5b50336000806101000a81548173ffffffffffffffffffffffffffffffffffffffff021916908373ffffffffffffffffffffffffffffffffffffffff160217905550611c84806100606000396000f3fe608060405234801561001057600080fd5b50600436106100a95760003560e01c8063692e019311610071578063692e01931461017957806378522bc4146101a9578063a9583c22146101c7578063c12f7455146101f9578063c241cdd714610215578063f851a44014610245576100a9565b806308d31e58146100ae57806318607174146100ca578063200a1b91146100fa578063209ca6ec1461012d5780634462417514610149575b600080fd5b6100c860048036038101906100c3919061133b565b610263565b005b6100e460048036038101906100df9190611293565b61047f565b6040516100f1919061196e565b60405180910390f35b610114600480360381019061010f9190611293565b61072e565b604051610124949392919061183e565b60405180910390f35b610147600480360381019061014291906112bc565b61088e565b005b610163600480360381019061015e9190611293565b610bcc565b60405161017091906118b3565b60405180910390f35b610193600480360381019061018e919061140f565b610bec565b6040516101a091906117ae565b60405180910390f35b6101b1610c50565b6040516101be9190611990565b60405180910390f35b6101e160048036038101906101dc9190611293565b610c56565b6040516101f0939291906117f9565b60405180910390f35b610213600480360381019061020e919061133b565b610db0565b005b61022f600480360381019061022a91906113ce565b611050565b60405161023c9190611891565b60405180910390f35b61024d6110fc565b60405161025a91906117ae565b60405180910390f35b600360003373ffffffffffffffffffffffffffffffffffffffff1673ffffffffffffffffffffffffffffffffffffffff16815260200190815260200160002060009054906101000a900460ff166102ef576040517f08c379a00000000000000000000000000000000000000000000000000000000081526004016102e69061194e565b60405180910390fd5b600073ffffffffffffffffffffffffffffffffffffffff16600160008673ffffffffffffffffffffffffffffffffffffffff1673ffffffffffffffffffffffffffffffffffffffff16815260200190815260200160002060000160009054906101000a900473ffffffffffffffffffffffffffffffffffffffff1673ffffffffffffffffffffffffffffffffffffffff1614156103c1576040517f08c379a00000000000000000000000000000000000000000000000000000000081526004016103b89061192e565b60405180910390fd5b6000600160008673ffffffffffffffffffffffffffffffffffffffff1673ffffffffffffffffffffffffffffffffffffffff16815260200190815260200160002090508381600101908051906020019061041c929190611120565b508281600201819055508181600301908051906020019061043e929190611120565b507f39670a98fa0d3298968910c2495fe9c535a25a73a63e02229479fd1318535dfc85856040516104709291906117c9565b60405180910390a15050505050565b6104876111a6565b600073ffffffffffffffffffffffffffffffffffffffff16600160008473ffffffffffffffffffffffffffffffffffffffff1673ffffffffffffffffffffffffffffffffffffffff16815260200190815260200160002060000160009054906101000a900473ffffffffffffffffffffffffffffffffffffffff1673ffffffffffffffffffffffffffffffffffffffff161415610559576040517f08c379a00000000000000000000000000000000000000000000000000000000081526004016105509061192e565b60405180910390fd5b600160008373ffffffffffffffffffffffffffffffffffffffff1673ffffffffffffffffffffffffffffffffffffffff1681526020019081526020016000206040518060800160405290816000820160009054906101000a900473ffffffffffffffffffffffffffffffffffffffff1673ffffffffffffffffffffffffffffffffffffffff1673ffffffffffffffffffffffffffffffffffffffff16815260200160018201805461060990611b07565b80601f016020809104026020016040519081016040528092919081815260200182805461063590611b07565b80156106825780601f1061065757610100808354040283529160200191610682565b820191906000526020600020905b81548152906001019060200180831161066557829003601f168201915b50505050508152602001600282015481526020016003820180546106a590611b07565b80601f01602080910402602001604051908101604052809291908181526020018280546106d190611b07565b801561071e5780601f106106f35761010080835404028352916020019161071e565b820191906000526020600020905b81548152906001019060200180831161070157829003601f168201915b5050505050815250509050919050565b60016020528060005260406000206000915090508060000160009054906101000a900473ffffffffffffffffffffffffffffffffffffffff169080600101805461077790611b07565b80601f01602080910402602001604051908101604052809291908181526020018280546107a390611b07565b80156107f05780601f106107c5576101008083540402835291602001916107f0565b820191906000526020600020905b8154815290600101906020018083116107d357829003601f168201915b50505050509080600201549080600301805461080b90611b07565b80601f016020809104026020016040519081016040528092919081815260200182805461083790611b07565b80156108845780601f1061085957610100808354040283529160200191610884565b820191906000526020600020905b81548152906001019060200180831161086757829003601f168201915b5050505050905084565b60008054906101000a900473ffffffffffffffffffffffffffffffffffffffff1673ffffffffffffffffffffffffffffffffffffffff163373ffffffffffffffffffffffffffffffffffffffff161461091c576040517f08c379a0000000000000000000000000000000000000000000000000000000008152600401610913906118ee565b60405180910390fd5b600360008473ffffffffffffffffffffffffffffffffffffffff1673ffffffffffffffffffffffffffffffffffffffff16815260200190815260200160002060009054906101000a900460ff16156109a9576040517f08c379a00000000000000000000000000000000000000000000000000000000081526004016109a0906118ce565b60405180910390fd5b60405180606001604052808473ffffffffffffffffffffffffffffffffffffffff16815260200183815260200182815250600260008573ffffffffffffffffffffffffffffffffffffffff1673ffffffffffffffffffffffffffffffffffffffff16815260200190815260200160002060008201518160000160006101000a81548173ffffffffffffffffffffffffffffffffffffffff021916908373ffffffffffffffffffffffffffffffffffffffff1602179055506020820151816001019080519060200190610a7c929190611120565b506040820151816002019080519060200190610a99929190611120565b509050506001600360008573ffffffffffffffffffffffffffffffffffffffff1673ffffffffffffffffffffffffffffffffffffffff16815260200190815260200160002060006101000a81548160ff021916908315150217905550600481604051610b059190611797565b9081526020016040518091039020839080600181540180825580915050600190039060005260206000200160009091909190916101000a81548173ffffffffffffffffffffffffffffffffffffffff021916908373ffffffffffffffffffffffffffffffffffffffff16021790555060056000815480929190610b8790611b39565b91905055507f91c9b0638903073a8140d368a76d44a039d189441b24420fb9ffe61233af33c5838383604051610bbf939291906117f9565b60405180910390a1505050565b60036020528060005260406000206000915054906101000a900460ff1681565b6004828051602081018201805184825260208301602085012081835280955050505050508181548110610c1e57600080fd5b906000526020600020016000915091509054906101000a900473ffffffffffffffffffffffffffffffffffffffff1681565b60055481565b60026020528060005260406000206000915090508060000160009054906101000a900473ffffffffffffffffffffffffffffffffffffffff1690806001018054610c9f90611b07565b80601f0160208091040260200160405190810160405280929190818152602001828054610ccb90611b07565b8015610d185780601f10610ced57610100808354040283529160200191610d18565b820191906000526020600020905b815481529060010190602001808311610cfb57829003601f168201915b505050505090806002018054610d2d90611b07565b80601f0160208091040260200160405190810160405280929190818152602001828054610d5990611b07565b8015610da65780601f10610d7b57610100808354040283529160200191610da6565b820191906000526020600020905b815481529060010190602001808311610d8957829003601f168201915b5050505050905083565b600360003373ffffffffffffffffffffffffffffffffffffffff1673ffffffffffffffffffffffffffffffffffffffff16815260200190815260200160002060009054906101000a900460ff16610e3c576040517f08c379a0000000000000000000000000000000000000000000000000000000008152600401610e339061194e565b60405180910390fd5b600073ffffffffffffffffffffffffffffffffffffffff16600160008673ffffffffffffffffffffffffffffffffffffffff1673ffffffffffffffffffffffffffffffffffffffff16815260200190815260200160002060000160009054906101000a900473ffffffffffffffffffffffffffffffffffffffff1673ffffffffffffffffffffffffffffffffffffffff1614610f0d576040517f08c379a0000000000000000000000000000000000000000000000000000000008152600401610f049061190e565b60405180910390fd5b60405180608001604052808573ffffffffffffffffffffffffffffffffffffffff16815260200184815260200183815260200182815250600160008673ffffffffffffffffffffffffffffffffffffffff1673ffffffffffffffffffffffffffffffffffffffff16815260200190815260200160002060008201518160000160006101000a81548173ffffffffffffffffffffffffffffffffffffffff021916908373ffffffffffffffffffffffffffffffffffffffff1602179055506020820151816001019080519060200190610fe6929190611120565b5060408201518160020155606082015181600301908051906020019061100d929190611120565b509050507f5bf4fbd0a415439cfc927a948a5366e59cfaf99989124634aac6a6712f7dbe2e84846040516110429291906117c9565b60405180910390a150505050565b60606004826040516110629190611797565b90815260200160405180910390208054806020026020016040519081016040528092919081815260200182805480156110f057602002820191906000526020600020905b8160009054906101000a900473ffffffffffffffffffffffffffffffffffffffff1673ffffffffffffffffffffffffffffffffffffffff16815260200190600101908083116110a6575b50505050509050919050565b60008054906101000a900473ffffffffffffffffffffffffffffffffffffffff1681565b82805461112c90611b07565b90600052602060002090601f01602090048101928261114e5760008555611195565b82601f1061116757805160ff1916838001178555611195565b82800160010185558215611195579182015b82811115611194578251825591602001919060010190611179565b5b5090506111a291906111e4565b5090565b6040518060800160405280600073ffffffffffffffffffffffffffffffffffffffff1681526020016060815260200160008152602001606081525090565b5b808211156111fd5760008160009055506001016111e5565b5090565b600061121461120f846119dc565b6119ab565b90508281526020810184848401111561122c57600080fd5b611237848285611ac5565b509392505050565b60008135905061124e81611c20565b92915050565b600082601f83011261126557600080fd5b8135611275848260208601611201565b91505092915050565b60008135905061128d81611c37565b92915050565b6000602082840312156112a557600080fd5b60006112b38482850161123f565b91505092915050565b6000806000606084860312156112d157600080fd5b60006112df8682870161123f565b935050602084013567ffffffffffffffff8111156112fc57600080fd5b61130886828701611254565b925050604084013567ffffffffffffffff81111561132557600080fd5b61133186828701611254565b9150509250925092565b6000806000806080858703121561135157600080fd5b600061135f8782880161123f565b945050602085013567ffffffffffffffff81111561137c57600080fd5b61138887828801611254565b93505060406113998782880161127e565b925050606085013567ffffffffffffffff8111156113b657600080fd5b6113c287828801611254565b91505092959194509250565b6000602082840312156113e057600080fd5b600082013567ffffffffffffffff8111156113fa57600080fd5b61140684828501611254565b91505092915050565b6000806040838503121561142257600080fd5b600083013567ffffffffffffffff81111561143c57600080fd5b61144885828601611254565b92505060206114598582860161127e565b9150509250929050565b600061146f838361147b565b60208301905092915050565b61148481611a7d565b82525050565b61149381611a7d565b82525050565b60006114a482611a1c565b6114ae8185611a3f565b93506114b983611a0c565b8060005b838110156114ea5781516114d18882611463565b97506114dc83611a32565b9250506001810190506114bd565b5085935050505092915050565b61150081611a8f565b82525050565b600061151182611a27565b61151b8185611a50565b935061152b818560208601611ad4565b61153481611c0f565b840191505092915050565b600061154a82611a27565b6115548185611a61565b9350611564818560208601611ad4565b61156d81611c0f565b840191505092915050565b600061158382611a27565b61158d8185611a72565b935061159d818560208601611ad4565b80840191505092915050565b60006115b6601c83611a61565b91507f446f63746f7220697320616c726561647920617574686f72697a6564000000006000830152602082019050919050565b60006115f6602183611a61565b91507f4f6e6c792061646d696e2063616e2063616c6c20746869732066756e6374696f60008301527f6e000000000000000000000000000000000000000000000000000000000000006020830152604082019050919050565b600061165c601683611a61565b91507f50617469656e7420616c726561647920657869737473000000000000000000006000830152602082019050919050565b600061169c601683611a61565b91507f50617469656e7420646f6573206e6f74206578697374000000000000000000006000830152602082019050919050565b60006116dc600e83611a61565b91507f4e6f7420617574686f72697a65640000000000000000000000000000000000006000830152602082019050919050565b6000608083016000830151611727600086018261147b565b506020830151848203602086015261173f8282611506565b91505060408301516117546040860182611779565b506060830151848203606086015261176c8282611506565b9150508091505092915050565b61178281611abb565b82525050565b61179181611abb565b82525050565b60006117a38284611578565b915081905092915050565b60006020820190506117c3600083018461148a565b92915050565b60006040820190506117de600083018561148a565b81810360208301526117f0818461153f565b90509392505050565b600060608201905061180e600083018661148a565b8181036020830152611820818561153f565b90508181036040830152611834818461153f565b9050949350505050565b6000608082019050611853600083018761148a565b8181036020830152611865818661153f565b90506118746040830185611788565b8181036060830152611886818461153f565b905095945050505050565b600060208201905081810360008301526118ab8184611499565b905092915050565b60006020820190506118c860008301846114f7565b92915050565b600060208201905081810360008301526118e7816115a9565b9050919050565b60006020820190508181036000830152611907816115e9565b9050919050565b600060208201905081810360008301526119278161164f565b9050919050565b600060208201905081810360008301526119478161168f565b9050919050565b60006020820190508181036000830152611967816116cf565b9050919050565b60006020820190508181036000830152611988818461170f565b905092915050565b60006020820190506119a56000830184611788565b92915050565b6000604051905081810181811067ffffffffffffffff821117156119d2576119d1611be0565b5b8060405250919050565b600067ffffffffffffffff8211156119f7576119f6611be0565b5b601f19601f8301169050602081019050919050565b6000819050602082019050919050565b600081519050919050565b600081519050919050565b6000602082019050919050565b600082825260208201905092915050565b600082825260208201905092915050565b600082825260208201905092915050565b600081905092915050565b6000611a8882611a9b565b9050919050565b60008115159050919050565b600073ffffffffffffffffffffffffffffffffffffffff82169050919050565b6000819050919050565b82818337600083830152505050565b60005b83811015611af2578082015181840152602081019050611ad7565b83811115611b01576000848401525b50505050565b60006002820490506001821680611b1f57607f821691505b60208210811415611b3357611b32611bb1565b5b50919050565b6000611b4482611abb565b91507fffffffffffffffffffffffffffffffffffffffffffffffffffffffffffffffff821415611b7757611b76611b82565b5b600182019050919050565b7f4e487b7100000000000000000000000000000000000000000000000000000000600052601160045260246000fd5b7f4e487b7100000000000000000000000000000000000000000000000000000000600052602260045260246000fd5b7f4e487b7100000000000000000000000000000000000000000000000000000000600052604160045260246000fd5b6000601f19601f8301169050919050565b611c2981611a7d565b8114611c3457600080fd5b50565b611c4081611abb565b8114611c4b57600080fd5b5056fea26469706673582212200c200be5d6a6bf1435d201c3d127254233e54682af86a20b24247c05e056e05164736f6c63430008000033",
  "linkReferences": {},
  "deployedLinkReferences": {}
}