{
  "_format": "hh-sol-artifact-1",
  "contractName": "Healthcare",
  "sourceName": "contracts/Healtchcare.sol",
  "abi": [
    {
      "inputs": [],
      "stateMutability": "nonpayable",
      "type": "constructor"
    },
    {
      "anonymous": false,
      "inputs": [
        {
          "indexed": false,
          "internalType": "address",
          "name": "doctorId",
          "type": "address"
        },
        {
          "indexed": false,
          "internalType": "string",
          "name": "name",
          "type": "string"
        },
        {
          "indexed": false,
          "internalType": "enum Healthcare.Specialty",
          "name": "specialty",
          "type": "uint8"
        }
      ],
      "name": "DoctorAdded",
      "type": "event"
    },
    {
      "anonymous": false,
      "inputs": [
        {
          "indexed": false,
          "internalType": "address",
          "name": "patientId",
          "type": "address"
        },
        {
          "indexed": false,
          "internalType": "string",
          "name": "name",
          "type": "string"
        },
        {
          "indexed": false,
          "internalType": "uint256",
          "name": "age",
          "type": "uint256"
        },
        {
          "indexed": false,
          "internalType": "string",
          "name": "medicalHistory",
          "type": "string"
        },
        {
          "indexed": false,
          "internalType": "enum Healthcare.Gender",
          "name": "gender",
          "type": "uint8"
        }
      ],
      "name": "PatientAdded",
      "type": "event"
    },
    {
      "anonymous": false,
      "inputs": [
        {
          "indexed": false,
          "internalType": "string",
          "name": "name",
          "type": "string"
        },
        {
          "indexed": false,
          "internalType": "address",
          "name": "addr",
          "type": "address"
        }
      ],
      "name": "StaffAdded",
      "type": "event"
    },
    {
      "inputs": [
        {
          "internalType": "address",
          "name": "_id",
          "type": "address"
        },
        {
          "internalType": "string",
          "name": "_name",
          "type": "string"
        },
        {
          "internalType": "enum Healthcare.Specialty",
          "name": "_specialty",
          "type": "uint8"
        }
      ],
      "name": "addDoctor",
      "outputs": [],
      "stateMutability": "nonpayable",
      "type": "function"
    },
    {
      "inputs": [
        {
          "internalType": "address",
          "name": "_id",
          "type": "address"
        },
        {
          "internalType": "string",
          "name": "_name",
          "type": "string"
        },
        {
          "internalType": "uint256",
          "name": "age",
          "type": "uint256"
        },
        {
          "internalType": "string",
          "name": "medicalHistory",
          "type": "string"
        },
        {
          "internalType": "enum Healthcare.Gender",
          "name": "gender",
          "type": "uint8"
        }
      ],
      "name": "addPatient",
      "outputs": [],
      "stateMutability": "nonpayable",
      "type": "function"
    },
    {
      "inputs": [
        {
          "internalType": "string",
          "name": "_name",
          "type": "string"
        },
        {
          "internalType": "address",
          "name": "_addr",
          "type": "address"
        }
      ],
      "name": "addStaff",
      "outputs": [],
      "stateMutability": "nonpayable",
      "type": "function"
    },
    {
      "inputs": [],
      "name": "admin",
      "outputs": [
        {
          "internalType": "address",
          "name": "",
          "type": "address"
        }
      ],
      "stateMutability": "view",
      "type": "function"
    },
    {
      "inputs": [
        {
          "internalType": "uint256",
          "name": "",
          "type": "uint256"
        }
      ],
      "name": "doctorList",
      "outputs": [
        {
          "internalType": "address",
          "name": "",
          "type": "address"
        }
      ],
      "stateMutability": "view",
      "type": "function"
    },
    {
      "inputs": [
        {
          "internalType": "address",
          "name": "",
          "type": "address"
        }
      ],
      "name": "doctors",
      "outputs": [
        {
          "internalType": "address",
          "name": "id",
          "type": "address"
        },
        {
          "internalType": "string",
          "name": "name",
          "type": "string"
        },
        {
          "internalType": "enum Healthcare.Specialty",
          "name": "specialty",
          "type": "uint8"
        }
      ],
      "stateMutability": "view",
      "type": "function"
    },
    {
      "inputs": [
        {
          "internalType": "address",
          "name": "_id",
          "type": "address"
        }
      ],
      "name": "getDoctor",
      "outputs": [
        {
          "internalType": "address",
          "name": "",
          "type": "address"
        },
        {
          "internalType": "string",
          "name": "",
          "type": "string"
        },
        {
          "internalType": "enum Healthcare.Specialty",
          "name": "",
          "type": "uint8"
        }
      ],
      "stateMutability": "view",
      "type": "function"
    },
    {
      "inputs": [
        {
          "internalType": "address",
          "name": "_id",
          "type": "address"
        }
      ],
      "name": "getPatient",
      "outputs": [
        {
          "internalType": "address",
          "name": "",
          "type": "address"
        },
        {
          "internalType": "string",
          "name": "",
          "type": "string"
        },
        {
          "internalType": "uint256",
          "name": "",
          "type": "uint256"
        },
        {
          "internalType": "string",
          "name": "",
          "type": "string"
        },
        {
          "internalType": "enum Healthcare.Gender",
          "name": "",
          "type": "uint8"
        }
      ],
      "stateMutability": "view",
      "type": "function"
    },
    {
      "inputs": [],
      "name": "patientCounter",
      "outputs": [
        {
          "internalType": "uint256",
          "name": "",
          "type": "uint256"
        }
      ],
      "stateMutability": "view",
      "type": "function"
    },
    {
      "inputs": [
        {
          "internalType": "address",
          "name": "",
          "type": "address"
        }
      ],
      "name": "patients",
      "outputs": [
        {
          "internalType": "address",
          "name": "id",
          "type": "address"
        },
        {
          "internalType": "string",
          "name": "name",
          "type": "string"
        },
        {
          "internalType": "uint256",
          "name": "age",
          "type": "uint256"
        },
        {
          "internalType": "string",
          "name": "medicalHistory",
          "type": "string"
        },
        {
          "internalType": "enum Healthcare.Gender",
          "name": "gender",
          "type": "uint8"
        }
      ],
      "stateMutability": "view",
      "type": "function"
    },
    {
      "inputs": [
        {
          "internalType": "address",
          "name": "",
          "type": "address"
        }
      ],
      "name": "staff",
      "outputs": [
        {
          "internalType": "string",
          "name": "name",
          "type": "string"
        }
      ],
      "stateMutability": "view",
      "type": "function"
    }
  ],
  "bytecode": "0x608060405234801561001057600080fd5b50600080546001600160a01b03191633179055610f80806100326000396000f3fe608060405234801561001057600080fd5b50600436106100a95760003560e01c806378f6de241161007157806378f6de24146101525780637ade687c14610165578063a9583c2214610178578063b5368e201461018b578063e8e0b05c1461019e578063f851a440146101b3576100a9565b80630869cfbc146100ae578063127ca4b4146100db5780632f04e064146100fb5780634f83158a1461011d57806365a9df6f1461013d575b600080fd5b6100c16100bc366004610bdf565b6101bb565b6040516100d2959493929190610dfd565b60405180910390f35b6100ee6100e9366004610d42565b610308565b6040516100d29190610da5565b61010e610109366004610bdf565b610332565b6040516100d293929190610db9565b61013061012b366004610bdf565b610466565b6040516100d29190610e5c565b61015061014b366004610cf6565b610504565b005b610150610160366004610c63565b6105b2565b610150610173366004610c00565b6106ef565b61010e610186366004610bdf565b6107fa565b6100c1610199366004610bdf565b6108b2565b6101a6610a94565b6040516100d29190610eda565b6100ee610a9a565b6001602081905260009182526040909120805491810180546001600160a01b03909316926101e890610ee3565b80601f016020809104026020016040519081016040528092919081815260200182805461021490610ee3565b80156102615780601f1061023657610100808354040283529160200191610261565b820191906000526020600020905b81548152906001019060200180831161024457829003601f168201915b50505050509080600201549080600301805461027c90610ee3565b80601f01602080910402602001604051908101604052809291908181526020018280546102a890610ee3565b80156102f55780601f106102ca576101008083540402835291602001916102f5565b820191906000526020600020905b8154815290600101906020018083116102d857829003601f168201915b5050506004909301549192505060ff1685565b6005818154811061031857600080fd5b6000918252602090912001546001600160a01b0316905081565b6001600160a01b0380821660009081526002602090815260408083208151606081810190935281549095168552600181018054949592948694859493929084019161037c90610ee3565b80601f01602080910402602001604051908101604052809291908181526020018280546103a890610ee3565b80156103f55780601f106103ca576101008083540402835291602001916103f5565b820191906000526020600020905b8154815290600101906020018083116103d857829003601f168201915b505050918352505060028281015460209092019160ff169081111561042a57634e487b7160e01b600052602160045260246000fd5b600281111561044957634e487b7160e01b600052602160045260246000fd5b905250805160208201516040909201519097919650945092505050565b60036020526000908152604090208054819061048190610ee3565b80601f01602080910402602001604051908101604052809291908181526020018280546104ad90610ee3565b80156104fa5780601f106104cf576101008083540402835291602001916104fa565b820191906000526020600020905b8154815290600101906020018083116104dd57829003601f168201915b5050505050905081565b6000546001600160a01b031633146105375760405162461bcd60e51b815260040161052e90610e99565b60405180910390fd5b60408051602080820183528482526001600160a01b0384166000908152600382529290922081518051929391926105719284920190610aa9565b509050507fa5f3a0cf7136ebbee0d4e25bf9322a99b387bce65b8e89b3ace402e90564599c82826040516105a6929190610e6f565b60405180910390a15050565b6040518060a00160405280866001600160a01b031681526020018581526020018481526020018381526020018260018111156105fe57634e487b7160e01b600052602160045260246000fd5b90526001600160a01b038681166000908152600160208181526040909220845181546001600160a01b031916941693909317835583820151805161064a93928501929190910190610aa9565b506040820151600282015560608201518051610670916003840191602090910190610aa9565b50608082015160048201805460ff1916600183818111156106a157634e487b7160e01b600052602160045260246000fd5b02179055509050507f786438a3ad2bc2253e529f0084ef2fd7bf2471ec28ec15b222f7ee5352cf3b9485858585856040516106e0959493929190610dfd565b60405180910390a15050505050565b6040518060600160405280846001600160a01b0316815260200183815260200182600281111561072f57634e487b7160e01b600052602160045260246000fd5b90526001600160a01b038481166000908152600260209081526040909120835181546001600160a01b03191693169290921782558281015180516107799260018501920190610aa9565b5060408201518160020160006101000a81548160ff021916908360028111156107b257634e487b7160e01b600052602160045260246000fd5b02179055509050507f78895a0a71ea29ac6c64a7558e8ebd3052ad54dff9f5c9dd97eefdf5711ad0d78383836040516107ed93929190610db9565b60405180910390a1505050565b600260205260009081526040902080546001820180546001600160a01b03909216929161082690610ee3565b80601f016020809104026020016040519081016040528092919081815260200182805461085290610ee3565b801561089f5780601f106108745761010080835404028352916020019161089f565b820191906000526020600020905b81548152906001019060200180831161088257829003601f168201915b5050506002909301549192505060ff1683565b6001600160a01b038082166000908152600160208181526040808420815160a08101909252805490951681529184018054939460609486948694869485949293918401916108ff90610ee3565b80601f016020809104026020016040519081016040528092919081815260200182805461092b90610ee3565b80156109785780601f1061094d57610100808354040283529160200191610978565b820191906000526020600020905b81548152906001019060200180831161095b57829003601f168201915b505050505081526020016002820154815260200160038201805461099b90610ee3565b80601f01602080910402602001604051908101604052809291908181526020018280546109c790610ee3565b8015610a145780601f106109e957610100808354040283529160200191610a14565b820191906000526020600020905b8154815290600101906020018083116109f757829003601f168201915b5050509183525050600482015460209091019060ff166001811115610a4957634e487b7160e01b600052602160045260246000fd5b6001811115610a6857634e487b7160e01b600052602160045260246000fd5b9052508051602082015160408301516060840151608090940151929b919a509850919650945092505050565b60045481565b6000546001600160a01b031681565b828054610ab590610ee3565b90600052602060002090601f016020900481019282610ad75760008555610b1d565b82601f10610af057805160ff1916838001178555610b1d565b82800160010185558215610b1d579182015b82811115610b1d578251825591602001919060010190610b02565b50610b29929150610b2d565b5090565b5b80821115610b295760008155600101610b2e565b80356001600160a01b0381168114610b5957600080fd5b919050565b600082601f830112610b6e578081fd5b813567ffffffffffffffff80821115610b8957610b89610f34565b604051601f8301601f191681016020018281118282101715610bad57610bad610f34565b604052828152848301602001861015610bc4578384fd5b82602086016020830137918201602001929092529392505050565b600060208284031215610bf0578081fd5b610bf982610b42565b9392505050565b600080600060608486031215610c14578182fd5b610c1d84610b42565b9250602084013567ffffffffffffffff811115610c38578283fd5b610c4486828701610b5e565b925050604084013560038110610c58578182fd5b809150509250925092565b600080600080600060a08688031215610c7a578081fd5b610c8386610b42565b9450602086013567ffffffffffffffff80821115610c9f578283fd5b610cab89838a01610b5e565b9550604088013594506060880135915080821115610cc7578283fd5b50610cd488828901610b5e565b925050608086013560028110610ce8578182fd5b809150509295509295909350565b60008060408385031215610d08578182fd5b823567ffffffffffffffff811115610d1e578283fd5b610d2a85828601610b5e565b925050610d3960208401610b42565b90509250929050565b600060208284031215610d53578081fd5b5035919050565b60008151808452815b81811015610d7f57602081850181015186830182015201610d63565b81811115610d905782602083870101525b50601f01601f19169290920160200192915050565b6001600160a01b0391909116815260200190565b6001600160a01b0384168152606060208201819052600090610ddd90830185610d5a565b905060038310610def57610def610f1e565b826040830152949350505050565b6001600160a01b038616815260a060208201819052600090610e2190830187610d5a565b8560408401528281036060840152610e398186610d5a565b91505060028310610e4c57610e4c610f1e565b8260808301529695505050505050565b600060208252610bf96020830184610d5a565b600060408252610e826040830185610d5a565b905060018060a01b03831660208301529392505050565b60208082526021908201527f4f6e6c792061646d696e2063616e2063616c6c20746869732066756e6374696f6040820152603760f91b606082015260800190565b90815260200190565b600281046001821680610ef757607f821691505b60208210811415610f1857634e487b7160e01b600052602260045260246000fd5b50919050565b634e487b7160e01b600052602160045260246000fd5b634e487b7160e01b600052604160045260246000fdfea2646970667358221220be664a3922ca70ea4c3f4b1c662e2ceb2f2a037d4b124b9f2c9e8de777f8823f64736f6c63430008000033",
  "linkReferences": {},
  "deployedLinkReferences": {}
}